:020000040800F2
:10000000100500204104000865040008670400088A
:100010006B0400086F04000873040008000000006F
:10002000000000000000000000000000770400084D
:1000300079040008000000007B0400087D0400082B
:100040005B0400085B0400085B0400085B04000814
:100050005B0400085B0400085B0400085B04000804
:100060005B0400085B0400085B0400085B040008F4
:100070005B0400085B0400085B0400085B040008E4
:100080005B0400085B0400085B0400085B040008D4
:100090005B0400085B0400085B0400085B040008C4
:1000A0005B0400085B0400085B0400085B040008B4
:1000B0005B0400085B0400085B0400085B040008A4
:1000C0005B0400085B0400085B0400085B04000894
:1000D0005B0400085B0400085B0400085B04000884
:1000E0005B0400085B0400085B0400085B04000874
:1000F0005B0400085B0400085B0400085B04000864
:100100005B0400085B0400085B0400085B04000853
:100110005B0400085B0400085B0400085B04000843
:100120005B0400085B0400085B0400085B04000833
:10013000DFF80CD001F0C0F9004800474501000885
:100140001005002086B000F058FE7AE004A800F008
:1001500083FEBDF9100001F081F805464FF08E4195
:1001600000F028FF04464FF0804100F0F1FE3549D1
:100170000860BDF9120001F071F805464FF08E419C
:1001800000F018FF04464FF0804100F0E1FE2D49D9
:100190004860BDF9140001F061F805464FF08E414A
:1001A00000F008FF04464FF0804100F0D1FE2549E1
:1001B000886002A800F070FEBDF9080001F04EF85A
:1001C00005464FF08E4100F0F5FE04461E4900F052
:1001D000BFFE1E490860BDF90A0001F03FF8054660
:1001E0004FF08E4100F0E6FE0446174900F0B0FEE5
:1001F00016494860BDF90C0001F030F805464FF093
:100200008E4100F0D7FE04460F4900F0A1FE0F49D1
:10021000886001A800F070FEBDF9040001F01EF82E
:1002200081460B4900F0C6FE044601F050F807462F
:10023000084A094B00F0FCFE054601F05BF807494F
:10024000086083E7300000200000FA443C000020F2
:100250000000AA43A4703D0AD74342400400002096
:100260000CB50020019000906C48006840F480308C
:100270006A49086000BF6948006800F400300090D7
:100280000198401C0190009818B90198B0F5A06F32
:10029000F1D16248006800F4003010B101200090F4
:1002A00001E0002000900098012843D15C480068DC
:1002B00040F010005A4908600846006820F003002A
:1002C00008600846006840F0020008605348406833
:1002D000524948600846406848600846406840F413
:1002E000806048600846406820F47C1048600846FA
:1002F000406840F4E81048600846006840F08070AC
:10030000086000BF4548006800F000700028F9D080
:100310004248406820F00300404948600846406871
:1003200040F00200486000BF3C48406800F00C000C
:100330000828F9D10CBD10B5FFF792FF10BD10B51C
:100340003648006840F001003449086008464068BB
:10035000344908403149486008460068324908403D
:100360002E4908600846006820F48020086008468E
:10037000406820F4FE0048604FF41F008860FFF7DB
:10038000DAFF4FF000602949086010BD10B5002168
:1003900000200022214B5B6803F00C0121B10429ED
:1003A00006D0082928D107E0214B224C236027E002
:1003B0001F4B204C236023E0184B5B6803F4701044
:1003C000164B5B6803F48032022303EB904022B9A2
:1003D000194B4343174C23600DE0104B5B6803F44B
:1003E000003323B1144B4343124C236003E0104B02
:1003F0004343104C236003E00D4B0E4C236000BFC1
:1004000000BF064B5B68C3F303130C4CE15C094B64
:100410001B68CB40074C236010BD00000010024059
:10042000002002400000FFF8FFFFF6FE08ED00E0AC
:1004300000127A000800002000093D000C00002096
:100440000648804706480047FEE7FEE7FEE7FEE76E
:10045000FEE7FEE7FEE7FEE7FEE7FEE73F030008F4
:1004600031010008704700BFFEE700BFFEE700BF94
:10047000FEE700BFFEE77047704770477047000017
:1004800010B50446CC48844208D10121042000F074
:100490002DFB0021042000F029FB46E0C7488442E0
:1004A00008D10121082000F021FB0021082000F0E4
:1004B0001DFB3AE0C248844208D10121102000F01F
:1004C00015FB0021102000F011FB2EE0BD488442F6
:1004D00008D10121202000F009FB0021202000F09C
:1004E00005FB22E0B848844208D10121402000F0F9
:1004F000FDFA0021402000F0F9FA16E0B3488442EA
:1005000008D10121802000F0F1FA0021802000F0C4
:10051000EDFA0AE0AE48844207D10121801500F0CF
:10052000E5FA0021A01500F0E1FA10BD10B5012197
:10053000084600F0DBFA0021012000F0D7FA10BDD8
:100540002DE9F0410246002500260020002300246A
:10055000002791F803C00CF00F0591F803C00CF0D0
:10056000100CBCF1000F03D091F802C04CEA050555
:1005700091F800C0BCF1000F31D0146800202BE0CE
:100580004FF0010C0CFA00F3B1F800C00CEA0306BE
:100590009E4220D183004FF00F0C0CFA03F7BC43AE
:1005A00005FA03FC4CEA040491F803C0BCF1280FDF
:1005B00006D14FF0010C0CFA00FCC2F814C00AE09E
:1005C00091F803C0BCF1480F05D14FF0010C0CFAB3
:1005D00000FCC2F810C0401C0828D1D31460B1F848
:1005E00000C0BCF1FF0F34DD546800202EE000F1A4
:1005F000080C4FF0010808FA0CF3B1F800C00CEA3F
:1006000003069E4221D183004FF00F0C0CFA03F732
:10061000BC4305FA03FC4CEA040491F803C0BCF1A6
:10062000280F05D100F1080C08FA0CF8C2F8148064
:1006300091F803C0BCF1480F07D100F1080C4FF04E
:10064000010808FA0CF8C2F81080401C0828CED324
:100650005460BDE8F0814FF6FF7101800221817086
:100660000421C17070470246002093680B400BB113
:10067000012000E0002070470146886880B2704782
:1006800002460020D3680B400BB1012000E000209F
:1006900070470146C86880B2704701617047416188
:1006A00070470AB1016100E041617047C160704765
:1006B0004FF480320A43826181618261826982697A
:1006C000704702460020434B18684FF6807318406D
:1006D00040EA021008433F4B186070473E49C8612A
:1006E0007047F0B50A46002300240021002500F0E1
:1006F0000046B6F1004F02D1364EF16901E0354EA9
:100700007168C0F3034583B200F44016B6F5401F8C
:1007100008D121F070612F4E766826F070662D4F5B
:100720007E6012E000F48016B6F5801F06D1032625
:1007300006FA05F4A14341F0706106E0460D36016A
:1007400003FA06F6B14341F0706122B1460D36015D
:1007500003FA06F6314300F00046B6F1004F02D12D
:100760001C4EF16101E01B4E7160F0BD30B50022FE
:100770008B071C0F0F2303FA04F2164B08338C105F
:1007800053F824309343134C08348D1044F825302B
:1007900023468C1053F824308C07240F00FA04F4FD
:1007A00023430C4C08348D1044F8253030BD0A49E1
:1007B000DC3108607047000000080140000C014077
:1007C000001001400014014000180140001C0140CD
:1007D000002001400000014000002042DF48006886
:1007E00040F00100DD49086008464068DC490840E7
:1007F000DA49486008460068DA490840D749086085
:100800000846006820F4802008600846406820F40C
:10081000FE0048604FF41F0088607047CF490968A8
:1008200021F48031CD4A11601146096821F48021FC
:100830001160B0F5803F03D0B0F5802F0ED106E0F7
:10084000C649096841F48031C44A116007E0C349D0
:10085000096841F4A021C14A116000E000BF00BF57
:10086000704710B501460022002300204A11012ADA
:1008700002D1BA4C236806E0022A02D1B74C236A9F
:1008800001E0B64C636A01F01F02012494401C4051
:100890000CB1012000E0002010BD38B50020009010
:1008A0000024002500BF3120FFF7DBFF054600983C
:1008B000401C00900098B0F5A06F01D0002DF2D040
:1008C0003120FFF7CEFF08B1012400E000242046CC
:1008D00038BD01460020A14A106820F0F80040EA27
:1008E000C10010607047A0490860704702460020B0
:1008F0009A4B586820F47C1042EA01031843974B46
:100900005860704798490866704701460020934A2E
:10091000506820F003000843506070478F484068DB
:1009200000F00C007047014600208C4A506820F00F
:10093000F00008435060704701460020874A506825
:1009400020F4E06008435060704701460020834A6D
:10095000506820F4605040EAC1005060704729B1EF
:100960007E4A527A02437D4B5A7204E07B4A527AA5
:1009700082437A4B5A7270477B49D831086070477E
:1009800001460020754A506820F4404008435060FA
:1009900070470021714A20321170704A82F820108D
:1009A000012802D004280AD104E001216B4A203238
:1009B000117005E00521694A2032117000E000BF86
:1009C00000BF70476949086070476449096A01437C
:1009D000624A11627047654944390860704730B512
:1009E00000210022002400235C4D6D6805F00C01FD
:1009F00021B1042905D0082923D105E05C4D05600B
:100A000022E05B4D05601FE0544D6D6805F47012E7
:100A1000524D6D6805F48034022505EB92421CB9F5
:100A2000544D554305600BE04C4D6D6805F40035A1
:100A30001DB1504D5543056002E04D4D55430560D5
:100A400002E04B4D056000BF00BF444D6D6805F0EE
:100A5000F0010909484D6B5C0568DD4045603F4D7C
:100A60006D6805F4E061090A434D6B5C4568DD4043
:100A700085603A4D6D6805F46051C90A3E4D6B5C66
:100A80004568DD40C560354D6D6805F44041890B12
:100A90003A4D6B5CC568B5FBF3F5056130BD29B116
:100AA0002E4A526902432D4B5A6104E02B4A526987
:100AB00082432A4B5A61704729B1284A92690243FE
:100AC000264B9A6104E0254A92698243234B9A613E
:100AD000704729B1214AD2690243204BDA6104E010
:100AE0001E4AD26982431D4BDA61704729B11B4A05
:100AF000D2680243194BDA6004E0184AD268824394
:100B0000164BDA60704729B1144A12690243134B3D
:100B10001A6104E0114A12698243104B1A6170474E
:100B200012494039086070470F49C86470470B4943
:100B3000C87170470948406A40F0807007494862B0
:100B4000704701460020054A92680A400AB1012018
:100B500000E0002070470149887270470010024091
:100B60000000FFF8FFFFF6FE000042428004424210
:100B700000127A0000093D001C0000202C0000201B
:100B8000002001E0411CC8B20A28FBDB704710B509
:100B90004FF400607649086040100860FFF7F0FFEE
:100BA0004FF400607249091D0860FFF7E9FF4FF438
:100BB00080606F49091D0860FFF7E2FF10BD10B5A6
:100BC0004FF400606A49091D08604010091F086061
:100BD000FFF7D6FF4FF400606549086010BD70B59F
:100BE0000446002524E004F0800020B14FF40060AA
:100BF0005F49086004E04FF400605D49091D08602A
:100C0000FFF7BEFF4FF4806059490860FFF7B8FF57
:100C10004FF480605649091D0860072D02D140003D
:100C2000091F08606006040EFFF7AAFF681CC5B222
:100C3000082DD8DB70BD10B54FF400604C49091D7C
:100C40000860FFF79DFF4FF4806049490860FFF797
:100C500097FF4FF480604649091D0860FFF790FF39
:100C60004FF400604249086010BD10B54FF40060B9
:100C70003F490860FFF784FF4FF480603C490860FB
:100C8000FFF77EFF4FF480603949091D0860FFF7C8
:100C900077FF10BD70B505460024002618E06006F9
:100CA000040E4FF4806032490860FFF769FF304856
:100CB0000838006800F4006008B1601CC4B24FF44A
:100CC00080602B49091D0860FFF75AFF701CC6B2EF
:100CD000082EE4DB15B9FFF7C8FF01E0FFF7ABFF13
:100CE000204670BD10B54FF4006021490860FFF741
:100CF00047FF4FF480601E490860FFF741FF1C4822
:100D00000838006800F4006008B1012400E0002405
:100D10004FF480601649091D0860FFF731FF204637
:100D200010BD08B501210820FFF7C6FE4FF4406052
:100D3000ADF8000003208DF8020014208DF80300A8
:100D400069460B481038FFF7FBFBFFF738FF08BD7B
:100D500070B50446FFF7E5FFFFF719FF2046FFF7E0
:100D60003EFFFFF7BFFF0546FFF729FF284670BD8E
:100D7000100C014070B505460C46FFF708FFD02067
:100D8000FFF72DFFFFF7AEFF2846FFF728FFFFF71D
:100D9000A9FF2046FFF723FFFFF7A4FFFFF70FFF90
:100DA00070BD2DE9F04107460C461546FFF7EFFEF2
:100DB000D020FFF714FFFFF795FF3846FFF70FFF2E
:100DC000FFF790FFFFF7E3FED120FFF708FFFFF7E3
:100DD00089FF002606E00120FFF75CFF2070641CFD
:100DE000701CC6B2681EB042F5DC0020FFF752FF4F
:100DF0002070FFF7E4FEBDE8F08170B50024002507
:100E0000FFF78FFF00BF06E0002500E06D1CB5F581
:100E10007A7FFBDB641CB4F57A7FF5DB00216B2065
:100E2000FFF7A8FF07211920FFF7A4FF06211A20CA
:100E3000FFF7A0FF00211C20FFF79CFF18211B20BB
:100E4000FFF798FF70BD08B50020009001226946A9
:100E50007520FFF7A6FF08BD1CB5044606226946AB
:100E60003B20FFF79EFF9DF801009DF8001040EA2F
:100E7000012000B220809DF803009DF8021040EA96
:100E8000012000B260809DF805009DF8041040EA42
:100E9000012000B2A0801CBD1CB504460622694694
:100EA0004320FFF77EFF9DF801009DF8001040EA07
:100EB000012000B220809DF803009DF8021040EA56
:100EC000012000B260809DF805009DF8041040EA02
:100ED000012000B2A0801CBD38B50446022269463C
:100EE0004120FFF75EFF9DF801009DF8001040EAE9
:100EF000012000B2208038BD2DE9F84F8246022241
:100F000069464120FFF74DFF9DF801009DF8001054
:100F100040EA01200FFA80FB43F29030584400F081
:100F2000A6F980460022084B00F029F90646002267
:100F3000064B00F01EF9044600F0AAF900B2AAF828
:100F40000000BDE8F88F00000080714000002A40DA
:100F500080EA010210B502F00043400022D04A00AE
:100F60001FD0010E01EB1261C0F35600C2F356020E
:100F700040F4000042F40002A0FB022000047F398C
:100F8000140400D0401C50EA124001D44000491E15
:100F9000C2B20C0604EBD010401C4008802A02D0DC
:100FA00003E0002010BD20F00100002900DA00203D
:100FB000184310BD30B480EA010202F0004530F061
:100FC000004221F0004013D090B1C30DD40DC2F304
:100FD0001601C0F31600E41A41F4000140F40002C7
:100FE0007D34914201D3641C00E04900002C02DAF8
:100FF00030BC002070474FF400000023914201D321
:10100000891A034340084FEA4101F7D151B1914297
:1010100002D14FF0004105E002D24FF0010101E0A2
:101020006FF0010103EBC450284430BC00F0AFB9AD
:101030002DE9FE4F804681EA0300C00F0C46009068
:1010400021F0004123F00045B8EB0200A94105D290
:101050004046214690461C460B46024623F000407F
:10106000104347D0270DC7F30A00C3F30A5102907B
:10107000401A019040286BDAC3F3130040F4801B40
:101080000098924620B10023D2EB030A63EB0B0BCE
:1010900001985946C0F14002504600F047F9064613
:1010A0000D4650465946019A00F05FF910EB0800D2
:1010B0006141002487EA115284EAE7731A4340D061
:1010C000009A62B3019A012A4FEA075215DC001B0D
:1010D00061EB02014FF0004202EA0752CDE9004203
:1010E000001C41F5801132462B4600F096F903B002
:1010F000BDE8F08F40462146F9E7001B61EB020195
:10110000001C41F5801300185B412018A2F5001760
:1011100047EB030140EAD570B6196D4111E06D0847
:101120004FEA360645EAC0754FEA0752001B61EBED
:101130000201001C41F5801149084FEA30000019F6
:10114000514132462B4603B0BDE8F04F00F056B98E
:101150000098012240000023D0EB020263EBE07311
:10116000009821464FEAE074B8EB000061EB0401FF
:10117000E9E783F000435BE781F0004158E72DE9A0
:10118000F04D81EA030404F0004B21F000451446C1
:101190004FF0000A23F0004150EA050220D054EA43
:1011A00001021DD0C5F30A570246C5F31303C1F36C
:1011B0001300C1F30A5640F4801543F48013A7EBE3
:1011C0000608101BD64608F2FD3873EB050002D363
:1011D00008F1010801E092185B41B8F1000F03DA51
:1011E00000200146BDE8F08D00204FF48011064636
:1011F00084460EE0171B73EB050705D3121B63EB48
:10120000050306434CEA010C49084FEA30009218E6
:101210005B4150EA0107EDD152EA030012D082EAA5
:10122000040083EA0501084305D0101BAB4106D238
:101230000122002306E000224FF0004302E06FF09D
:10124000010253101AEB06004CEB085110EB0A0098
:1012500041EB0B01BDE8F04D00F0D0B8C10F80EAC2
:10126000E0700844CA079623002100F099B80EB533
:10127000C10F80EAE0700844CA07002140F23343FE
:101280008DE80E000A460B4600F0C7F803B000BD1B
:1012900070B5C1F30A5201F000450024C1F31301F7
:1012A00040F2FF3341F480119A4201DA002070BD10
:1012B00040F233439A42A2F2334203DC524200F03E
:1012C00044F800E090402C43F1D0404270BD00F063
:1012D000004230F000400AD0C10D01F56071C0F34A
:1012E000160042EA0151C20840071143704700202E
:1012F0000146704701F0004330B421F0004150EA4C
:10130000010206D00A0DA2F56072C1F31301002A92
:1013100002DC30BC00207047440F44EAC104C10025
:10132000E01830BC00EBC25000F031B8202A04DBDA
:10133000203A00FA02F1002070479140C2F12003E8
:1013400020FA03F3194390407047202A04DB203A27
:1013500021FA02F00021704721FA02F3D040C2F1D5
:1013600020029140084319467047202A06DBCB171C
:10137000203A41FA02F043EAE07306E041FA02F350
:10138000D040C2F12002914008431946704700291D
:10139000A8BF7047401C490008BF20F001007047FB
:1013A00010B4B0FA80FC00FA0CF050EA010404BF5B
:1013B00010BC704749B1CCF1200421FA04F411FAB1
:1013C0000CF118BF012121430843A3EB0C01CB1DF5
:1013D0004FEA00614FEA102042BF002010BC704766
:1013E00000EBC35010440029A4BF10BC7047401C40
:1013F000490008BF20F0010010BC704710B5141E52
:1014000073F1000408DA401C41F1000192185B41BD
:101410001A4301D120F0010010BD2DE9F04D924694
:101420009B4611B1B1FA81F202E0B0FA80F22032AB
:101430009046FFF77BFF04460F4640EA0A0041EA68
:101440000B0153465A46084313D0114653EA010094
:1014500019D0C8F140025046FFF777FF05460E4607
:10146000504659464246FFF761FF084305D0012028
:1014700004E020463946BDE8F08D0020054346EAE9
:10148000E0762C4337430A986305E40AA0EB080092
:101490000022FD0A44EA47540A3002D500200146E2
:1014A000E9E7010510196941DDE9084500196941BD
:1014B000BDE8F04DA2E70000064C074D06E0E068ED
:1014C00040F0010394E8070098471034AC42F6D38B
:1014D000FEF732FEFC1400081C15000802E008C8E4
:1014E000121F08C1002AFAD170477047002001E09E
:1014F00001C1121F002AFBD1704700001C15000813
:101500000000002030000000DC1400084C1500082A
:1015100030000020E0040000EC140008000000008F
:101520000000000000A24A040000000000000000CB
:101530000102030406070809000000000102030479
:0C15400001020304060708090204060863
:0400000508000131BD
:00000001FF
